:020000040000FA
:100000000C9463000C9458030C9431030C947F03FC
:100010000C947F030C947F030C948B000C948B0046
:100020000C948B000C948B000C948B000C948B0024
:100030000C948B000C948B000C948B000C948B0014
:100040000C94E7020C948B000C948B000C948B00A6
:100050000C948B000C948B000C948B000C948B00F4
:100060000C948B000C948B000000000024002700EF
:100070002A0000000008000201000003040700003D
:1000800000000000000000000000230026002900FE
:1000900000000000250028002B00040404040404D0
:1000A0000404020202020202030303030303010227
:1000B00004081020408001020408102001020408F6
:1000C00010205404E40711241FBECFEFD8E0DEBF98
:1000D000CDBF11E0A0E0B1E0E6E2F0E102C00590A2
:1000E0000D92A831B107D9F721E0A8E1B1E001C034
:1000F0001D92A039B207E1F710E0C2E6D0E004C0DB
:100100002197FE010E940008C136D107C9F70E945D
:1001100026050C9406080C94000090E0FC01EE58B3
:10012000FF4F2491FC01E255FF4F3491FC01E6564C
:10013000FF4FE491EE23C9F0222339F0233001F17F
:10014000A8F4213019F1223029F1F0E0EE0FFF1F61
:10015000E057FF4FA591B4918FB7F894EC916111DE
:1001600026C030953E233C938FBF08952730A9F0D9
:100170002830C9F0243049F7809180008F7D03C07A
:10018000809180008F7780938000DFCF84B58F7758
:1001900084BDDBCF84B58F7DFBCF8091B0008F779E
:1001A0008093B000D2CF8091B0008F7DF9CF3E2BED
:1001B000DACFCF93DF9360E08CE00E948D0060E0A7
:1001C00088E00E948D00C7E0D0E060E084E00E94FB
:1001D0008D008091670190E00C2E02C09595879567
:1001E0000A94E2F761E080FF60E088E00E948D0001
:1001F00061E084E00E948D00219738F761E08CE097
:10020000DF91CF910C948D00CF93DF9390E0FC01B0
:10021000E255FF4F249186569F4FFC01849188231D
:10022000D1F090E0880F991FFC01E859FF4FA5918C
:10023000B491FC01E057FF4FC591D49161110EC0FC
:100240009FB7F8948C91E22FE0958E238C932881B0
:10025000E223E8839FBFDF91CF9108958FB7F89491
:10026000EC91E22BEC938FBFF6CF0895AF92BF9243
:10027000CF92DF92EF92FF920F931F93CF93DF9372
:100280006C017B018B01040F151FEB015E01AE18A1
:10029000BF08C017D10759F06991D601ED91FC91C3
:1002A0000190F081E02DC6010995892B79F7C501F0
:1002B000DF91CF911F910F91FF90EF90DF90CF9042
:1002C000BF90AF90089520915A0130915B0128179B
:1002D000390771F49091580180915901981741F0B4
:1002E000E0915801F0E0E85EFE4F808190E00895D3
:1002F0008FEF9FEF08950895EF92FF920F931F9352
:10030000CF93DF93DC015C96ED90FC905D97E11458
:10031000F10479F481E090E013969C938E93129708
:1003200090E080E0DF91CF911F910F91FF90EF90CF
:1003300008955196ED91FC91529750968C9150975B
:10034000982F90950FB75E962C915E97122F127092
:1003500021FD6095F8942081112319F1282B208329
:10036000E7012197F1F728E0462F50E0308160FF48
:100370001AC0382B3083E7012197F1F7BA01759540
:100380006795215089F7112381F08081892380832B
:100390000FBF5C968D919C910197F1F781E090E001
:1003A000C1CF2923DCCF3923E5CF9081892BEFCF33
:1003B00020915A0130915B012817390761F480912F
:1003C00059012091580190E0805C9F4F821B910958
:1003D0008F739927089590E080E0089520915A0145
:1003E00030915B0128173907B9F490915801809139
:1003F0005901981789F0E0915801F0E0E85EFE4F4E
:1004000080812091580130E02F5F3F4F2F733327B9
:100410002093580190E008958FEF9FEF089590E0AA
:1004200080E00895FC018081823061F018F4813011
:1004300031F00895833049F0843049F00895609395
:10044000B30008956093B400089567BD089568BD32
:100450000895FC018081823069F028F423E092E065
:10046000813051F00895833011F126E090E084301E
:1004700019F0089524E091E06230E1F0643079F100
:10048000613009F03FC041E050E0BA0101C0660FA1
:100490009A95EAF780916701862B01C0440F2A954F
:1004A000EAF740954823409367010C94D90027E070
:1004B00095E0E2CF41E050E0BA0102C0660F771F3D
:1004C0009A95E2F7CB01809590916701892301C04D
:1004D000440F2A95EAF7842B80936701E6CF41E029
:1004E00050E0FA0102C0EE0FFF1F9A95E2F7CF012C
:1004F00001C0440F2A95EAF7842B809590916701FB
:100500008923EACF08950F931F9360E089E00E944A
:100510008D008BE090E00197F1F761E089E00E94A7
:100520008D0083E290E00197F1F760E089E00E949E
:100530008D00E8EBF0E06491E4EAF0E0E491F0E0B3
:10054000EE0FFF1FEA57FF4F8591949100E412E4EC
:100550002FE030E0462F0E94F703611571058105F9
:10056000910529F06F5F7F4F8F4F9F4F9F706830CD
:10057000710554F160E08FE691E00E94120264E0A0
:100580008FE691E00E94290260E08DE691E00E94F2
:10059000120264E08DE691E00E94290260E08BE6A1
:1005A00091E00E94120264E08BE691E00E94290231
:1005B00060E089E691E00E94120264E089E691E041
:1005C0001F910F910C9429021F910F9108951F9272
:1005D0000F920FB60F9211242F933F938F939F93F7
:1005E000AF93BF938091630190916401A0916501E5
:1005F000B09166013091620123E0230F2D3758F549
:100600000196A11DB11D2093620180936301909317
:100610006401A0936501B093660180915E019091A1
:100620005F01A0916001B09161010196A11DB11D12
:1006300080935E0190935F01A0936001B09361018C
:10064000BF91AF919F918F913F912F910F900FBECE
:100650000F901F90189526E8230F0296A11DB11D3B
:10066000D2CF1F920F920FB60F9211242F933F9368
:100670004F935F936F937F938F939F93AF93BF93AA
:10068000EF93FF93E0910201F09103010995FF912F
:10069000EF91BF91AF919F918F917F916F915F91FA
:1006A0004F913F912F910F900FBE0F901F90189573
:1006B0001F920F920FB60F9211242F933F934F93D7
:1006C0005F936F937F938F939F93AF93BF93EF93BA
:1006D000FF93E0910001F09101010995FF91EF91E5
:1006E000BF91AF919F918F917F916F915F914F914A
:1006F0003F912F910F900FBE0F901F9018951F9252
:100700000F920FB60F9211242F933F934F935F9345
:100710006F937F938F939F93AF93BF93EF93FF93C9
:10072000E0915A01F0915B01309749F0A685B785B9
:100730008585968D91FF14C09C918923A1F4FF912A
:10074000EF91BF91AF919F918F917F916F915F9149
:100750004F913F912F910F900FBE0F901F901895C2
:100760009C91892361F7A389B4899C91858980959F
:1007700089238C93868997890197F1F7608D718D14
:10078000A685B785558538E020E0CB010197F1F7C4
:10079000822F90E095958795282F4C91452309F05D
:1007A0002068315091F7868D81FD20958091590107
:1007B00090E001968F73992730915801381799F07E
:1007C000A0915901B0E0A85EBE4F2C9380935901CF
:1007D000828D938D0197F1F7A389B4898C919589C6
:1007E000892B8C93ACCF868D8160868FF1CFCF9291
:1007F000DF92EF92FF920F931F93E82FF92F05C01E
:10080000015011092109310961F190819623941752
:10081000B9F305C0015011092109310911F1908185
:1008200096239413F7CFC12CD12CE12CF12C0AC0C4
:100830008FEFC81AD80AE80AF80A0C151D052E050C
:100840003F0579F080818623841791F36C2D7D2DEF
:100850008E2D9F2D1F910F91FF90EF90DF90CF90E5
:10086000089560E070E080E090E01F910F91FF90AC
:10087000EF90DF90CF90089561E08CE00E9404013A
:1008800061E087E00E94040161E088E00E940401C9
:1008900061E084E00E940401109267010E94D90087
:1008A00060E087E00C948D00CF93DF931092680195
:1008B000109274011092730188EE93E0A0E0B0E012
:1008C0008093750190937601A0937701B09378019E
:1008D0008AE091E0909372018093710110928801F7
:1008E0001092870110928A011092890110928C0156
:1008F00010928B0110928E0110928D0160918F01E8
:100900006E7F6D7F60938F016695617081E06827CF
:100910000E948D0061E081E00E940401EFEAF0E0B6
:10092000E491E0938101EBE9F0E0E491F0E0EE0F77
:10093000FF1FE057FF4F859194919093830180931F
:10094000820160E080E00E94040180918F0181FDBE
:1009500004C061E080E00E948D0010927D01EEEA0B
:10096000F0E0E491E0937E01EAE9F0E0E491F0E068
:10097000EE0FFF1FEA57FF4F8591949190938001EE
:1009800080937F0181E080936F01C4E0C093700188
:100990000E943C0480916701837F809367010E94DD
:1009A000D9008091B00083688093B000C093B100FB
:1009B0001092B30061E08BE00E94040182E080931A
:1009C0006D01C0936E010E943C04809167018D7E91
:1009D000809367010E94D9008091B0008362809368
:1009E000B000C093B1001092B40061E083E00E94B7
:1009F0000401D3E0D0936B01D0936C010E943C04BE
:100A0000809167018F75809367010E94D90084B53A
:100A1000836884BD17BC61E086E00E940401C09336
:100A20006901D0936A010E943C04809167018E7B2A
:100A3000809367010E94D90084B5836284BD18BC8D
:100A400061E085E0DF91CF910C940401789484B546
:100A5000826084BD84B5816084BD85B5826085BDBA
:100A600085B5816085BD80916E00816080936E0048
:100A7000109281008091810082608093810080913A
:100A800081008160809381008091800081608093EB
:100A900080008091B10084608093B1008091B000AB
:100AA00081608093B00080917A00846080937A00A6
:100AB00080917A00826080937A0080917A008160D0
:100AC00080937A0080917A00806880937A001092F7
:100AD000C10061E089E00E94040160E08AE00E94B8
:100AE000040110928C0110928B0110928A011092D5
:100AF000890110928801109287018DE991E090930D
:100B00008E0180938D0190917D01963108F047C050
:100B10002DEB30E030938801209387012BE931E001
:100B200030938A01209389012CE231E030938C01CB
:100B300020938B012091680084E0983048F031E0E8
:100B40009E3008F430E081E001C0880F3A95EAF762
:100B5000822B809368002DE630E0983050F02BE631
:100B600030E09E3030F02CE630E0963110F030E08E
:100B700020E03093850120938401292F30E09830C4
:100B800008F07EC081E001C0880F9A95EAF7809353
:100B9000860180918D0190918E010197F1F78091EE
:100BA0008B0190918C01892B49F1E0915A01F091D0
:100BB0005B0181E0E137F80709F1309739F0A3894B
:100BC000B4899C918589809589238C9380918F012C
:100BD0008E7F80938F01109259011092580181E706
:100BE00091E090935B0180935A01E0918401F09130
:100BF0008501808190918601892B808383E892E032
:100C00009093010180930001809169008C7F826044
:100C100080936900E89A66246A94712C70EE872E9E
:100C2000912C04EC10E0ECE8CE2ED12CF0E7AF2EA6
:100C3000B12C48E3242E312C5CE1452E512C81E768
:100C400091E00E94D8011816190644F481E791E05A
:100C50000E94EE0190935D0180935C0180915C01A4
:100C600090915D0180339105C1F4109205011092BD
:100C7000040180E090E0892B11F30E940000D9CF9D
:100C80009E3040F42850310981E001C0880F2A9538
:100C9000EAF77DCF2E503109F7CF8133910529F442
:100CA0005092050140920401E4CF8233910529F46A
:100CB0003092050120920401DCCF8333910539F491
:100CC00084E590E09093050180930401D2CF8433B2
:100CD000910529F4B0920501A0920401CACF853391
:100CE000910529F4D0920501C0920401C2CF863348
:100CF000910519F488EA90E0E5CF8733910529F44E
:100D00001093050100930401B4CF8833910529F4B1
:100D10009092050180920401ACCF8933910529F4AA
:100D20007092050160920401A4CF8634910509F008
:100D300025C1C09104016C2F8FE691E00E94120240
:100D400061E08FE691E00E9429026C2F8DE691E030
:100D50000E94120261E08DE691E00E9429026C2F50
:100D60008BE691E00E94120261E08BE691E00E9426
:100D700029026C2F58C08C34910599F4C09104015C
:100D80006C2F8FE691E00E94120262E08FE691E004
:100D90000E9429026C2F8DE691E00E94120262E00F
:100DA000DACF8235910599F4C09104016C2F8FE65A
:100DB00091E00E94120261E08FE691E00E94290218
:100DC0006C2F8DE691E00E94120261E0EDC0873445
:100DD000910599F5F0900401CF2D80910501D82F50
:100DE000D7FD2196D595C7956C2F8FE691E00E948F
:100DF000120261E08FE691E00E9429026C2F8DE6DD
:100E000091E00E94120261E08DE691E00E942902C9
:100E10006F2D8BE691E00E94120261E08BE691E07B
:100E20000E9429026F2D89E691E00E94120261E082
:100E300089E691E00E9429021CCF8934910501F5D1
:100E4000D0910401C09105016D2F8FE691E00E94C1
:100E5000120261E08FE691E00E9429026D2F8DE67B
:100E600091E00E94120261E08DE691E00E94290269
:100E70008D2F9C2F97FD0196EC01D595C7956FCFCF
:100E80008834910579F5F0900401CF2D809105010A
:100E9000D82FD7FD2196D595C7956C2F8FE691E079
:100EA0000E94120262E08FE691E00E9429026C2FFC
:100EB0008DE691E00E94120262E08DE691E00E94D0
:100EC00029026F2D8BE691E00E94120262E08BE610
:100ED00091E00E9429026F2D89E691E00E941202A2
:100EE00062E0A6CF8A34910501F5D0910401C0914A
:100EF00005016D2F8FE691E00E94120262E08FE6FD
:100F000091E00E9429026D2F8DE691E00E9412026D
:100F100062E08DE691E00E9429028D2F9C2F97FDC3
:100F20000196EC01D595C79543C08335910509F02D
:100F3000A0CE60E08FE691E00E94120264E08FE6AE
:100F400091E00E94290260E08DE691E00E94120289
:100F500064E08DE691E00E94290260E08BE691E07A
:100F60000E94120264E08BE691E00E94290260E098
:100F700089E691E00E94120264E05ACF8234910522
:100F800009F0F9CEC09104016C2F8FE691E00E9428
:100F9000120262E08FE691E00E9429026C2F8DE63A
:100FA00091E00E94120262E08DE691E00E94290227
:100FB0006C2F8BE691E00E94120262E08BE691E0DA
:100FC0000E9429026C2F88CF8AE091E090937201F1
:100FD0008093710180915A0190915B0181579140FA
:100FE00071F4E0918401F0918501908180918601F6
:100FF00080958923808310925B0110925A01089595
:10100000EE0FFF1F0590F491E02D099410E0C2E669
:10101000D0E004C0FE010E9400082196C336D1072B
:10102000C9F7F894FFCF35013501FF00000000003B
:0E1030007C0136010F027B01D801EE01630145
:107E0000112484B714BE81FFF0D085E080938100F7
:107E100082E08093C00088E18093C10086E0809377
:107E2000C20080E18093C4008EE0C9D0259A86E02C
:107E300020E33CEF91E0309385002093840096BBD3
:107E4000B09BFECF1D9AA8958150A9F7CC24DD24C4
:107E500088248394B5E0AB2EA1E19A2EF3E0BF2EE7
:107E6000A2D0813461F49FD0082FAFD0023811F036
:107E7000013811F484E001C083E08DD089C08234E0
:107E800011F484E103C0853419F485E0A6D080C0E4
:107E9000853579F488D0E82EFF2485D0082F10E0AE
:107EA000102F00270E291F29000F111F8ED06801E7
:107EB0006FC0863521F484E090D080E0DECF843638
:107EC00009F040C070D06FD0082F6DD080E0C81688
:107ED00080E7D80618F4F601B7BEE895C0E0D1E017
:107EE00062D089930C17E1F7F0E0CF16F0E7DF06D8
:107EF00018F0F601B7BEE89568D007B600FCFDCFD4
:107F0000A601A0E0B1E02C9130E011968C91119780
:107F100090E0982F8827822B932B1296FA010C0160
:107F200087BEE89511244E5F5F4FF1E0A038BF0790
:107F300051F7F601A7BEE89507B600FCFDCF97BE46
:107F4000E89526C08437B1F42ED02DD0F82E2BD052
:107F50003CD0F601EF2C8F010F5F1F4F84911BD097
:107F6000EA94F801C1F70894C11CD11CFA94CF0C13
:107F7000D11C0EC0853739F428D08EE10CD085E9AC
:107F80000AD08FE07ACF813511F488E018D01DD067
:107F900080E101D065CF982F8091C00085FFFCCF94
:107FA0009093C60008958091C00087FFFCCF809118
:107FB000C00084FD01C0A8958091C6000895E0E648
:107FC000F0E098E1908380830895EDDF803219F02E
:107FD00088E0F5DFFFCF84E1DECF1F93182FE3DFCA
:107FE0001150E9F7F2DF1F91089580E0E8DFEE27F6
:047FF000FF270994CA
:027FFE00040479
:00000001FF
