:100000000C9463000C948B000C948B000C949B025A
:100010000C949B020C949B020C948B000C948B0010
:100020000C948B000C948B000C948B000C948B0024
:100030000C948B000C948B000C948B000C948B0014
:100040000C9451020C948B000C948B000C948B003C
:100050000C948B000C948B000C948B000C948B00F4
:100060000C948B000C948B000000000024002700EF
:100070002A0000000008000201000003040700003D
:1000800000000000000000000000230026002900FE
:1000900000000000250028002B00040404040404D0
:1000A0000404020202020202030303030303010227
:1000B00004081020408001020408102001020408F6
:1000C00010205C03D70611241FBECFEFD8E0DEBF9F
:1000D000CDBF11E0A0E0B1E0ECE0FEE002C0059091
:1000E0000D92A431B107D9F721E0A4E1B1E001C03C
:1000F0001D92AC38B207E1F710E0C2E6D0E004C0D0
:100100002197FE010E94F306C136D107C9F70E946C
:100110002E040C94F9060C94000090E0FC01EE58BB
:10012000FF4F2491FC01E255FF4F3491FC01E6564C
:10013000FF4FE491EE23C9F0222339F0233001F17F
:10014000A8F4213019F1223029F1F0E0EE0FFF1F61
:10015000E057FF4FA591B4918FB7F894EC916111DE
:1001600026C030953E233C938FBF08952730A9F0D9
:100170002830C9F0243049F7809180008F7D03C07A
:10018000809180008F7780938000DFCF84B58F7758
:1001900084BDDBCF84B58F7DFBCF8091B0008F779E
:1001A0008093B000D2CF8091B0008F7DF9CF3E2BED
:1001B000DACFCF93DF9360E08CE00E948D0060E0A7
:1001C00088E00E948D00C7E0D0E060E084E00E94FB
:1001D0008D008091630190E00C2E02C0959587956B
:1001E0000A94E2F761E080FF60E088E00E948D0001
:1001F00061E084E00E948D00219738F761E08CE097
:10020000DF91CF910C948D00AF92BF92CF92DF928D
:10021000EF92FF920F931F93CF93DF936C017B01BB
:100220008B01040F151FEB015E01AE18BF08C0174C
:10023000D10759F06991D601ED91FC910190F081BF
:10024000E02DC6010995892B79F7C501DF91CF9182
:100250001F910F91FF90EF90DF90CF90BF90AF90E4
:10026000089520915601309157012817390771F4EC
:100270009091540180915501981741F0E0915401FB
:10028000F0E0EC5EFE4F808190E008958FEF9FEFED
:1002900008950895EF92FF920F931F93CF93DF93EA
:1002A000DC015C96ED90FC905D97E114F10479F42B
:1002B00081E090E013969C938E93129790E080E0FB
:1002C000DF91CF911F910F91FF90EF90089551967C
:1002D000ED91FC91529750968C915097982F909554
:1002E0000FB75E962C915E97122F127021FD6095CC
:1002F000F8942081112319F1282B2083E7012197FD
:10030000F1F728E0462F50E0308160FF1AC0382B0B
:100310003083E7012197F1F7BA0175956795215070
:1003200089F7112381F08081892380830FBF5C9638
:100330008D919C910197F1F781E090E0C1CF292345
:10034000DCCF3923E5CF9081892BEFCF2091560167
:10035000309157012817390761F480915501209198
:10036000540190E0805C9F4F821B91098F73992705
:10037000089590E080E00895209156013091570152
:1003800028173907B9F490915401809155019817B5
:1003900089F0E0915401F0E0EC5EFE4F8081209105
:1003A000540130E02F5F3F4F2F73332720935401C8
:1003B00090E008958FEF9FEF089590E080E008951A
:1003C000FC018081823061F018F4813031F00895B1
:1003D000833049F0843049F008956093B300089564
:1003E0006093B400089567BD089568BD0895FC0149
:1003F0008081823069F028F423E092E0813051F06E
:100400000895833011F126E090E0843019F00895CA
:1004100024E091E06230E1F0643079F1613009F07C
:100420003FC041E050E0BA0101C0660F9A95EAF77B
:1004300080916301862B01C0440F2A95EAF740950D
:100440004823409363010C94D90027E095E0E2CF64
:1004500041E050E0BA0102C0660F771F9A95E2F7BB
:10046000CB01809590916301892301C0440F2A95A7
:10047000EAF7842B80936301E6CF41E050E0FA0174
:1004800002C0EE0FFF1F9A95E2F7CF0101C0440FA3
:100490002A95EAF7842B8095909163018923EACF0E
:1004A00008951F920F920FB60F9211242F933F932E
:1004B0008F939F93AF93BF9380915F019091600161
:1004C000A0916101B091620130915E0123E0230FA0
:1004D0002D3758F50196A11DB11D20935E01809323
:1004E0005F0190936001A0936101B09362018091DC
:1004F0005A0190915B01A0915C01B0915D01019660
:10050000A11DB11D80935A0190935B01A0935C01E2
:10051000B0935D01BF91AF919F918F913F912F91CA
:100520000F900FBE0F901F90189526E8230F02968C
:10053000A11DB11DD2CF1F920F920FB60F921124A1
:100540002F933F934F935F936F937F938F939F93DB
:10055000AF93BF93EF93FF93E0915601F091570152
:10056000309749F0A685B7858585968D91FF14C093
:100570009C918923A1F4FF91EF91BF91AF919F913D
:100580008F917F916F915F914F913F912F910F903C
:100590000FBE0F901F9018959C91892361F7A38936
:1005A000B4899C918589809589238C9386899789C4
:1005B0000197F1F7608D718DA685B785558538E077
:1005C00020E0CB010197F1F7822F90E09595879578
:1005D000282F4C91452309F02068315091F7868DE2
:1005E00081FD20958091550190E001968F739927A8
:1005F00030915401381799F0A0915501B0E0AC5EEC
:10060000BE4F2C9380935501828D938D0197F1F706
:10061000A389B4898C919589892B8C93ACCF868DD5
:100620008160868FF1CFCF93DF9390E0FC01E2559C
:10063000FF4F249186569F4FFC0184918823D1F06F
:1006400090E0880F991FFC01E859FF4FA591B491E4
:10065000FC01E057FF4FC591D49161110EC09FB7C7
:10066000F8948C91E22FE0958E238C932881E223DD
:10067000E8839FBFDF91CF9108958FB7F894EC91F5
:10068000E22BEC938FBFF6CF61E08CE00E94130366
:1006900061E087E00E94130361E088E00E94130399
:1006A00061E084E00E941303109263010E94D9006C
:1006B00060E087E00C948D00CF93DF93109264018B
:1006C0001092700110926F0188EE93E0A0E0B0E00C
:1006D0008093710190937201A0937301B0937401A0
:1006E00086E091E090936E0180936D0110928401F9
:1006F0001092830110928601109285011092880158
:100700001092870110928A011092890160918B01E9
:100710006E7F6D7F60938B016695617081E06827C5
:100720000E948D0061E081E00E941303EFEAF0E097
:10073000E491E0937D01EBE9F0E0E491F0E0EE0F6D
:10074000FF1FE057FF4F8591949190937F01809315
:100750007E0160E080E00E94130380918B0181FDA7
:1007600004C061E080E00E948D0010927901EEEA01
:10077000F0E0E491E0937A01EAE9F0E0E491F0E05E
:10078000EE0FFF1FEA57FF4F8591949190937C01E4
:1007900080937B0181E080936B01C4E0C0936C0186
:1007A0000E94440380916301837F809363010E94D0
:1007B000D9008091B00083688093B000C093B100ED
:1007C0001092B30061E08BE00E94130382E08093FB
:1007D0006901C0936A010E944403809163018D7E88
:1007E000809363010E94D9008091B000836280935E
:1007F000B000C093B1001092B40061E083E00E94A9
:100800001303D3E0D0936701D09368010E9444039F
:10081000809163018F75809363010E94D90084B534
:10082000836884BD17BC61E086E00E941303C09317
:100830006501D09366010E944403809163018E7B21
:10084000809363010E94D90084B5836284BD18BC83
:1008500061E085E0DF91CF910C941303789484B527
:10086000826084BD84B5816084BD85B5826085BDAC
:1008700085B5816085BD80916E00816080936E003A
:10088000109281008091810082608093810080912C
:1008900081008160809381008091800081608093DD
:1008A00080008091B10084608093B1008091B0009D
:1008B00081608093B00080917A00846080937A0098
:1008C00080917A00826080937A0080917A008160C2
:1008D00080937A0080917A00806880937A001092E9
:1008E000C100109288011092870110928601109227
:1008F000850110928401109283018DE991E090931B
:100900008A018093890190917901963108F047C05E
:100910002DEB30E030938401209383012BE931E00B
:1009200030938601209385012CE231E030938801D9
:10093000209387012091680084E0983048F031E0EE
:100940009E3008F430E081E001C0880F3A95EAF764
:10095000822B809368002DE630E0983050F02BE633
:1009600030E09E3030F02CE630E0963110F030E090
:1009700020E03093810120938001292F30E09830CE
:1009800008F071C081E001C0880F9A95EAF7809362
:1009900082018091890190918A010197F1F78091FC
:1009A000870190918801892B49F1E0915601F091DE
:1009B000570181E0ED36F80709F1309739F0A38946
:1009C000B4899C918589809589238C9380918B0132
:1009D0008E7F80938B0110925501109254018DE609
:1009E00091E09093570180935601E0918001F0913E
:1009F0008101808190918201892B808366246A9491
:100A0000712C70EE872E912C04EC10E0ECE8CE2EC9
:100A1000D12CF0E7AF2EB12C48E3242E312C5CE131
:100A2000452E512C8DE691E00E94A601181619065C
:100A300044F48DE691E00E94BC01909359018093AB
:100A40005801809158019091590180339105C1F46A
:100A5000109201011092000180E090E0892B11F3C7
:100A60000E940000D9CF9E3040F42850310981E027
:100A700001C0880F2A95EAF78ACF2E503109F7CFA7
:100A80008133910529F45092010140920001E4CF95
:100A90008233910529F43092010120920001DCCFCC
:100AA0008333910539F484E590E0909301018093BC
:100AB0000001D2CF8433910529F4B0920101A092B4
:100AC0000001CACF8533910529F4D0920101C0926B
:100AD0000001C2CF8633910519F488EA90E0E5CF92
:100AE0008733910529F41093010100930001B4CFDD
:100AF0008833910529F49092010180920001ACCFD6
:100B00008933910529F47092010160920001A4CF0C
:100B10008634910509F025C1C09100016C2F8BE648
:100B200091E00E94E00161E08BE691E00E94F70114
:100B30006C2F89E691E00E94E00161E089E691E096
:100B40000E94F7016C2F87E691E00E94E00161E0CE
:100B500087E691E00E94F7016C2F58C08C34910514
:100B600099F4C09100016C2F8BE691E00E94E001A6
:100B700062E08BE691E00E94F7016C2F89E691E03C
:100B80000E94E00162E0DACF8235910599F4C091CC
:100B900000016C2F8BE691E00E94E00161E08BE6A2
:100BA00091E00E94F7016C2F89E691E00E94E0013C
:100BB00061E0EDC08734910599F5F0900001CF2DEB
:100BC00080910101D82FD7FD2196D595C7956C2F1F
:100BD0008BE691E00E94E00161E08BE691E00E94EB
:100BE000F7016C2F89E691E00E94E00161E089E65F
:100BF00091E00E94F7016F2D87E691E00E94E001ED
:100C000061E087E691E00E94F7016F2D85E691E0B3
:100C10000E94E00161E085E691E00E94F7011CCFAF
:100C20008934910501F5D0910001C09101016D2F2A
:100C30008BE691E00E94E00161E08BE691E00E948A
:100C4000F7016D2F89E691E00E94E00161E089E6FD
:100C500091E00E94F7018D2F9C2F97FD0196EC01EA
:100C6000D595C7956FCF8834910579F5F09000013F
:100C7000CF2D80910101D82FD7FD2196D595C7950D
:100C80006C2F8BE691E00E94E00162E08BE691E040
:100C90000E94F7016C2F89E691E00E94E00162E07A
:100CA00089E691E00E94F7016F2D87E691E00E94AE
:100CB000E00162E087E691E00E94F7016F2D85E692
:100CC00091E00E94E00162E0A6CF8A34910501F52F
:100CD000D0910001C09101016D2F8BE691E00E943F
:100CE000E00162E08BE691E00E94F7016D2F89E65A
:100CF00091E00E94E00162E089E691E00E94F70144
:100D00008D2F9C2F97FD0196EC01D595C79543C07B
:100D10008335910509F0A0CE60E08BE691E00E945A
:100D2000E00164E08BE691E00E94F70160E089E673
:100D300091E00E94E00164E089E691E00E94F70101
:100D400060E087E691E00E94E00164E087E691E0E0
:100D50000E94F70160E085E691E00E94E00164E016
:100D60005ACF8234910509F0F9CEC09100016C2F61
:100D70008BE691E00E94E00162E08BE691E00E9448
:100D8000F7016C2F89E691E00E94E00162E089E6BC
:100D900091E00E94F7016C2F87E691E00E94E0014C
:100DA00062E087E691E00E94F7016C2F88CF86E031
:100DB00091E090936E0180936D0180915601909126
:100DC00057018D56914071F4E0918001F0918101BD
:100DD00090818091820180958923808310925701B0
:100DE000109256010895EE0FFF1F0590F491E02D2B
:100DF000099410E0C2E6D0E004C0FE010E94F306B0
:0C0E00002196C336D107C9F7F894FFCF44
:100E0C00FF00000000004A010401DD014901A601B8
:040E1C00BC013101E3
:00000001FF
